{
	"data": {
		"bytecode": {
			"linkReferences": {},
			"object": "6080604052348015600f57600080fd5b5060ca8061001e6000396000f300608060405260043610603f576000357c0100000000000000000000000000000000000000000000000000000000900463ffffffff168063fe0d94c1146044575b600080fd5b348015604f57600080fd5b50606c60048036038101908080359060200190929190505050606e565b005b807fa6b4889fbc6222293f94ac3c68c40fa4c027b86b0dfe4f820475c7d8828a243660405160405180910390a2505600a165627a7a72305820ad5eda2858adb453fa363fc333a1561897e008ed023d93880f45035cd285d1010029",
			"opcodes": "PUSH1 0x80 PUSH1 0x40 MSTORE CALLVALUE DUP1 ISZERO PUSH1 0xF JUMPI PUSH1 0x0 DUP1 REVERT JUMPDEST POP PUSH1 0xCA DUP1 PUSH2 0x1E PUSH1 0x0 CODECOPY PUSH1 0x0 RETURN STOP PUSH1 0x80 PUSH1 0x40 MSTORE PUSH1 0x4 CALLDATASIZE LT PUSH1 0x3F JUMPI PUSH1 0x0 CALLDATALOAD PUSH29 0x100000000000000000000000000000000000000000000000000000000 SWAP1 DIV PUSH4 0xFFFFFFFF AND DUP1 PUSH4 0xFE0D94C1 EQ PUSH1 0x44 JUMPI JUMPDEST PUSH1 0x0 DUP1 REVERT JUMPDEST CALLVALUE DUP1 ISZERO PUSH1 0x4F JUMPI PUSH1 0x0 DUP1 REVERT JUMPDEST POP PUSH1 0x6C PUSH1 0x4 DUP1 CALLDATASIZE SUB DUP2 ADD SWAP1 DUP1 DUP1 CALLDATALOAD SWAP1 PUSH1 0x20 ADD SWAP1 SWAP3 SWAP2 SWAP1 POP POP POP PUSH1 0x6E JUMP JUMPDEST STOP JUMPDEST DUP1 PUSH32 0xA6B4889FBC6222293F94AC3C68C40FA4C027B86B0DFE4F820475C7D8828A2436 PUSH1 0x40 MLOAD PUSH1 0x40 MLOAD DUP1 SWAP2 SUB SWAP1 LOG2 POP JUMP STOP LOG1 PUSH6 0x627A7A723058 KECCAK256 0xad 0x5e 0xda 0x28 PC 0xad 0xb4 MSTORE8 STATICCALL CALLDATASIZE 0x3f 0xc3 CALLER LOG1 JUMP XOR SWAP8 0xe0 ADDMOD 0xed MUL RETURNDATASIZE SWAP4 DUP9 0xf GASLIMIT SUB 0x5c 0xd2 DUP6 0xd1 ADD STOP 0x29 "
		},
		"gasEstimates": {
			"creation": {
				"codeDepositCost": "40400",
				"executionCost": "93",
				"totalCost": "40493"
			},
			"external": {
				"execute(uint256)": "1346"
			}
		},
		"methodIdentifiers": {
			"execute(uint256)": "fe0d94c1"
		}
	},
	"abi": [
		{
			"constant": false,
			"inputs": [
				{
					"name": "_voteId",
					"type": "uint256"
				}
			],
			"name": "execute",
			"outputs": [],
			"payable": false,
			"stateMutability": "nonpayable",
			"type": "function"
		},
		{
			"anonymous": false,
			"inputs": [
				{
					"indexed": true,
					"name": "voteId",
					"type": "uint256"
				}
			],
			"name": "ExecuteEvent",
			"type": "event"
		}
	]
}